:1000000000200010C1000000E1000000E30000003B
:1000100000000000000000000000000000000000E0
:10002000000000000000000000000000E5000000EB
:100030000000000000000000E70000004D0200008A
:10004000EB000000EB000000EB000000EB00000004
:10005000EB000000EB000000EB000000EB000000F4
:10006000EB000000EB000000EB000000EB000000E4
:10007000EB00000039020000EB000000EB00000084
:10008000EB000000EB000000EB000000EB000000C4
:10009000EB000000EB00000000000000000000008A
:1000A000EB000000EB000000EB000000000000008F
:1000B000EB000000EB000000EB000000EB00000094
:1000C0000549064A0020521A02DD043A8850FCDC39
:1000D00000F06EF900F0C2F8000100100C010010F1
:1000E000FEE7FEE7FEE7FEE7FEE7FEE708B500F005
:1000F00053F8014B186008BD000100100C4B82B092
:100100009A68196C03230B400CD0012B02D00020FD
:1001100002B070471F20074B10401B68013001934D
:100120005843F5E71F200240034801325043EFE7F0
:1001300000800440F8050000001BB70003221249AC
:1001400008B50B6F1340022B11D0032B0CD0012BE1
:1001500001D00E4808BD0B6C1A40FAD00020012ACD
:10016000F8D10B4B1868F5E7FFF7C8FFF2E74B6AC9
:100170001F21DA051940120F064B92000131490088
:10018000D05800F053F9E5E700800440001BB700A9
:10019000F8050000B805000008B5FFF7CFFF024BD7
:1001A000996F00F043F908BD00800440802110B52C
:1001B0008024074B64015A5822435A5098227F39B1
:1001C000995007238360043BC3600D33836210BDE5
:1001D0000080044070B500262025002A0DDD002394
:1001E0004469254204D0CC5C013304609A42F7DCB8
:1001F000D21AF618C918002AF1DC301C70BDC046AE
:1002000070B50E1C041CFFF799FF3101051C00F0AE
:100210000DF98022011CE3680E1C1343E360030AFE
:10022000FF200640034026606360E368281C934378
:10023000E36000F0FBF870BD08B5034B1B689B68DA
:100240005B68984708BDC046F81FFF1F024A136845
:10025000013313607047C04604010010F8B55F46D3
:1002600056464D464446F0B4FFF740FFFA21294B6D
:100270008900186800F0DAF8274A01385060C02079
:10028000264900060B6A00241B021B0A03430B626B
:10029000E120072394604002136000F055F8A0208D
:1002A000802220251E4B1F4E1C501202B158802761
:1002B000A943B15001211C509967B0588843B050F0
:1002C0009967194800F068F8184B194D9B46194B6F
:1002D0009A46194B9946194B9846FA239B009C461F
:1002E00064442B689C42FCD22C6873685846002BEF
:1002F00000D1134800F044F8504600F041F8F3599B
:100300004846002B00D10F4800F03AF8404600F074
:1003100037F8E2E70001001010E000E000ED00E037
:1003200000400440000001501C060000FC050000D5
:1003300004010010280600000C0600002C06000036
:1003400004060000140600000122A42138B5051C93
:10035000094B0A4C5A5004315A50201CFFF726FF13
:10036000291C201CFFF74CFF0323E3607E33A360AE
:10037000013B236338BDC04600400440008000407C
:1003800010B5041C00F0E4F8211C021C0148FFF722
:1003900021FF10BD0080004010B5FFF7F1FF041CE5
:1003A0000248FFF7EDFF001910BDC04630060000FF
:1003B000184A194B01201A60184A194B19491A603A
:1003C000002201230A644B644A644B644A6C154B57
:1003D0001042FBD023228E2180209A6089005A5837
:1003E00082435A501A1C7F38D1680E4B0842FBD00A
:1003F00003221A67002201205A6701325A675A6F96
:1004000008491042FBD00123074A8B677F33CA504B
:100410007047C046006CDC020001001080BB000089
:1004200008010010008004405F0001000022430822
:100430008B4274D303098B425FD3030A8B4244D3AC
:10044000030B8B4228D3030C8B420DD3FF220902EE
:1004500012BA030C8B4202D31212090265D0030BAD
:100460008B4219D300E0090AC30B8B4201D3CB03A3
:10047000C01A5241830B8B4201D38B03C01A5241E5
:10048000430B8B4201D34B03C01A5241030B8B42E7
:1004900001D30B03C01A5241C30A8B4201D3CB02D2
:1004A000C01A5241830A8B4201D38B02C01A5241B7
:1004B000430A8B4201D34B02C01A5241030A8B42BA
:1004C00001D30B02C01A5241CDD2C3098B4201D3D2
:1004D000CB01C01A524183098B4201D38B01C01A50
:1004E000524143098B4201D34B01C01A52410309C7
:1004F0008B4201D30B01C01A5241C3088B4201D376
:10050000CB00C01A524183088B4201D38B00C01A22
:10051000524143088B4201D34B00C01A5241411A49
:1005200000D20146524110467047FFE701B5002056
:1005300000F00CF802BDC0460029F7D003B5FFF764
:1005400075FF0EBC4243891A1847C0467047C04623
:1005500010B5830727D00378002B26D0031C032176
:1005600002E01A78002A1CD001330B42F9D1196835
:100570000F4A104C8A188A4322420FD1043319685B
:100580000B4A8A188A43224208D104331968084A60
:100590008A188A432242F1D000E001331A78002AF7
:1005A000FBD1181A10BD031CE1E70020FAE7C04692
:1005B000FFFEFEFE8080808000000000C027090052
:1005C00090051000C05C1500F0B31A00200B20004D
:1005D000009F2400E0322900C0C62D005097310052
:1005E000E06735007038390000093D0040164000D2
:1005F00080234300C0304600001BB700325F4849EB
:1006000047480000325F4C4F57000000315F4849B7
:1006100047480000315F4C4F57000000537461722F
:1006200074656420757000002C2000000A00000032
:040630000D0A0000AF
:080634008CFAFF7F01000000B9
:04000003000000C138
:00000001FF
